{
  "_format": "hh-sol-artifact-1",
  "contractName": "Gochi",
  "sourceName": "contracts/Gochi.sol",
  "abi": [
    {
      "inputs": [],
      "stateMutability": "nonpayable",
      "type": "constructor"
    },
    {
      "inputs": [
        {
          "internalType": "address",
          "name": "sender",
          "type": "address"
        },
        {
          "internalType": "uint256",
          "name": "tokenId",
          "type": "uint256"
        },
        {
          "internalType": "address",
          "name": "owner",
          "type": "address"
        }
      ],
      "name": "ERC721IncorrectOwner",
      "type": "error"
    },
    {
      "inputs": [
        {
          "internalType": "address",
          "name": "operator",
          "type": "address"
        },
        {
          "internalType": "uint256",
          "name": "tokenId",
          "type": "uint256"
        }
      ],
      "name": "ERC721InsufficientApproval",
      "type": "error"
    },
    {
      "inputs": [
        {
          "internalType": "address",
          "name": "approver",
          "type": "address"
        }
      ],
      "name": "ERC721InvalidApprover",
      "type": "error"
    },
    {
      "inputs": [
        {
          "internalType": "address",
          "name": "operator",
          "type": "address"
        }
      ],
      "name": "ERC721InvalidOperator",
      "type": "error"
    },
    {
      "inputs": [
        {
          "internalType": "address",
          "name": "owner",
          "type": "address"
        }
      ],
      "name": "ERC721InvalidOwner",
      "type": "error"
    },
    {
      "inputs": [
        {
          "internalType": "address",
          "name": "receiver",
          "type": "address"
        }
      ],
      "name": "ERC721InvalidReceiver",
      "type": "error"
    },
    {
      "inputs": [
        {
          "internalType": "address",
          "name": "sender",
          "type": "address"
        }
      ],
      "name": "ERC721InvalidSender",
      "type": "error"
    },
    {
      "inputs": [
        {
          "internalType": "uint256",
          "name": "tokenId",
          "type": "uint256"
        }
      ],
      "name": "ERC721NonexistentToken",
      "type": "error"
    },
    {
      "anonymous": false,
      "inputs": [
        {
          "indexed": true,
          "internalType": "address",
          "name": "owner",
          "type": "address"
        },
        {
          "indexed": true,
          "internalType": "address",
          "name": "approved",
          "type": "address"
        },
        {
          "indexed": true,
          "internalType": "uint256",
          "name": "tokenId",
          "type": "uint256"
        }
      ],
      "name": "Approval",
      "type": "event"
    },
    {
      "anonymous": false,
      "inputs": [
        {
          "indexed": true,
          "internalType": "address",
          "name": "owner",
          "type": "address"
        },
        {
          "indexed": true,
          "internalType": "address",
          "name": "operator",
          "type": "address"
        },
        {
          "indexed": false,
          "internalType": "bool",
          "name": "approved",
          "type": "bool"
        }
      ],
      "name": "ApprovalForAll",
      "type": "event"
    },
    {
      "anonymous": false,
      "inputs": [
        {
          "indexed": true,
          "internalType": "uint256",
          "name": "tokenId",
          "type": "uint256"
        },
        {
          "indexed": false,
          "internalType": "address",
          "name": "owner",
          "type": "address"
        },
        {
          "indexed": false,
          "internalType": "bytes32",
          "name": "seed",
          "type": "bytes32"
        }
      ],
      "name": "GochiMinted",
      "type": "event"
    },
    {
      "anonymous": false,
      "inputs": [
        {
          "indexed": true,
          "internalType": "address",
          "name": "from",
          "type": "address"
        },
        {
          "indexed": true,
          "internalType": "address",
          "name": "to",
          "type": "address"
        },
        {
          "indexed": true,
          "internalType": "uint256",
          "name": "tokenId",
          "type": "uint256"
        }
      ],
      "name": "Transfer",
      "type": "event"
    },
    {
      "inputs": [
        {
          "internalType": "address",
          "name": "to",
          "type": "address"
        },
        {
          "internalType": "uint256",
          "name": "tokenId",
          "type": "uint256"
        }
      ],
      "name": "approve",
      "outputs": [],
      "stateMutability": "nonpayable",
      "type": "function"
    },
    {
      "inputs": [
        {
          "internalType": "address",
          "name": "owner",
          "type": "address"
        }
      ],
      "name": "balanceOf",
      "outputs": [
        {
          "internalType": "uint256",
          "name": "",
          "type": "uint256"
        }
      ],
      "stateMutability": "view",
      "type": "function"
    },
    {
      "inputs": [
        {
          "internalType": "uint256",
          "name": "",
          "type": "uint256"
        }
      ],
      "name": "birthTimestamp",
      "outputs": [
        {
          "internalType": "uint256",
          "name": "",
          "type": "uint256"
        }
      ],
      "stateMutability": "view",
      "type": "function"
    },
    {
      "inputs": [
        {
          "internalType": "uint256",
          "name": "tokenId",
          "type": "uint256"
        }
      ],
      "name": "getApproved",
      "outputs": [
        {
          "internalType": "address",
          "name": "",
          "type": "address"
        }
      ],
      "stateMutability": "view",
      "type": "function"
    },
    {
      "inputs": [
        {
          "internalType": "address",
          "name": "owner",
          "type": "address"
        },
        {
          "internalType": "address",
          "name": "operator",
          "type": "address"
        }
      ],
      "name": "isApprovedForAll",
      "outputs": [
        {
          "internalType": "bool",
          "name": "",
          "type": "bool"
        }
      ],
      "stateMutability": "view",
      "type": "function"
    },
    {
      "inputs": [],
      "name": "mint",
      "outputs": [
        {
          "internalType": "uint256",
          "name": "",
          "type": "uint256"
        }
      ],
      "stateMutability": "nonpayable",
      "type": "function"
    },
    {
      "inputs": [],
      "name": "name",
      "outputs": [
        {
          "internalType": "string",
          "name": "",
          "type": "string"
        }
      ],
      "stateMutability": "view",
      "type": "function"
    },
    {
      "inputs": [
        {
          "internalType": "uint256",
          "name": "tokenId",
          "type": "uint256"
        }
      ],
      "name": "ownerOf",
      "outputs": [
        {
          "internalType": "address",
          "name": "",
          "type": "address"
        }
      ],
      "stateMutability": "view",
      "type": "function"
    },
    {
      "inputs": [
        {
          "internalType": "uint256",
          "name": "",
          "type": "uint256"
        }
      ],
      "name": "personalitySeed",
      "outputs": [
        {
          "internalType": "bytes32",
          "name": "",
          "type": "bytes32"
        }
      ],
      "stateMutability": "view",
      "type": "function"
    },
    {
      "inputs": [
        {
          "internalType": "address",
          "name": "from",
          "type": "address"
        },
        {
          "internalType": "address",
          "name": "to",
          "type": "address"
        },
        {
          "internalType": "uint256",
          "name": "tokenId",
          "type": "uint256"
        }
      ],
      "name": "safeTransferFrom",
      "outputs": [],
      "stateMutability": "nonpayable",
      "type": "function"
    },
    {
      "inputs": [
        {
          "internalType": "address",
          "name": "from",
          "type": "address"
        },
        {
          "internalType": "address",
          "name": "to",
          "type": "address"
        },
        {
          "internalType": "uint256",
          "name": "tokenId",
          "type": "uint256"
        },
        {
          "internalType": "bytes",
          "name": "data",
          "type": "bytes"
        }
      ],
      "name": "safeTransferFrom",
      "outputs": [],
      "stateMutability": "nonpayable",
      "type": "function"
    },
    {
      "inputs": [
        {
          "internalType": "address",
          "name": "operator",
          "type": "address"
        },
        {
          "internalType": "bool",
          "name": "approved",
          "type": "bool"
        }
      ],
      "name": "setApprovalForAll",
      "outputs": [],
      "stateMutability": "nonpayable",
      "type": "function"
    },
    {
      "inputs": [
        {
          "internalType": "bytes4",
          "name": "interfaceId",
          "type": "bytes4"
        }
      ],
      "name": "supportsInterface",
      "outputs": [
        {
          "internalType": "bool",
          "name": "",
          "type": "bool"
        }
      ],
      "stateMutability": "view",
      "type": "function"
    },
    {
      "inputs": [],
      "name": "symbol",
      "outputs": [
        {
          "internalType": "string",
          "name": "",
          "type": "string"
        }
      ],
      "stateMutability": "view",
      "type": "function"
    },
    {
      "inputs": [
        {
          "internalType": "uint256",
          "name": "tokenId",
          "type": "uint256"
        }
      ],
      "name": "tokenURI",
      "outputs": [
        {
          "internalType": "string",
          "name": "",
          "type": "string"
        }
      ],
      "stateMutability": "view",
      "type": "function"
    },
    {
      "inputs": [
        {
          "internalType": "address",
          "name": "from",
          "type": "address"
        },
        {
          "internalType": "address",
          "name": "to",
          "type": "address"
        },
        {
          "internalType": "uint256",
          "name": "tokenId",
          "type": "uint256"
        }
      ],
      "name": "transferFrom",
      "outputs": [],
      "stateMutability": "nonpayable",
      "type": "function"
    }
  ],
  "bytecode": "0x608060405234801561000f575f5ffd5b506040518060400160405280600581526020017f476f6368690000000000000000000000000000000000000000000000000000008152506040518060400160405280600581526020017f474f434849000000000000000000000000000000000000000000000000000000815250815f908161008a91906102df565b50806001908161009a91906102df565b5050506103ae565b5f81519050919050565b7f4e487b71000000000000000000000000000000000000000000000000000000005f52604160045260245ffd5b7f4e487b71000000000000000000000000000000000000000000000000000000005f52602260045260245ffd5b5f600282049050600182168061011d57607f821691505b6020821081036101305761012f6100d9565b5b50919050565b5f819050815f5260205f209050919050565b5f6020601f8301049050919050565b5f82821b905092915050565b5f600883026101927fffffffffffffffffffffffffffffffffffffffffffffffffffffffffffffffff82610157565b61019c8683610157565b95508019841693508086168417925050509392505050565b5f819050919050565b5f819050919050565b5f6101e06101db6101d6846101b4565b6101bd565b6101b4565b9050919050565b5f819050919050565b6101f9836101c6565b61020d610205826101e7565b848454610163565b825550505050565b5f5f905090565b610224610215565b61022f8184846101f0565b505050565b5b81811015610252576102475f8261021c565b600181019050610235565b5050565b601f8211156102975761026881610136565b61027184610148565b81016020851015610280578190505b61029461028c85610148565b830182610234565b50505b505050565b5f82821c905092915050565b5f6102b75f198460080261029c565b1980831691505092915050565b5f6102cf83836102a8565b9150826002028217905092915050565b6102e8826100a2565b67ffffffffffffffff811115610301576103006100ac565b5b61030b8254610106565b610316828285610256565b5f60209050601f831160018114610347575f8415610335578287015190505b61033f85826102c4565b8655506103a6565b601f19841661035586610136565b5f5b8281101561037c57848901518255600182019150602085019450602081019050610357565b868310156103995784890151610395601f8916826102a8565b8355505b6001600288020188555050505b505050505050565b612073806103bb5f395ff3fe608060405234801561000f575f5ffd5b50600436106100fe575f3560e01c8063522d669d11610095578063a22cb46511610064578063a22cb465146102d0578063b88d4fde146102ec578063c87b56dd14610308578063e985e9c514610338576100fe565b8063522d669d146102225780636352211e1461025257806370a082311461028257806395d89b41146102b2576100fe565b80631249c58b116100d15780631249c58b1461019c57806323b872dd146101ba57806342842e0e146101d65780634be5dd91146101f2576100fe565b806301ffc9a71461010257806306fdde0314610132578063081812fc14610150578063095ea7b314610180575b5f5ffd5b61011c600480360381019061011791906117b1565b610368565b60405161012991906117f6565b60405180910390f35b61013a610449565b604051610147919061187f565b60405180910390f35b61016a600480360381019061016591906118d2565b6104d8565b604051610177919061193c565b60405180910390f35b61019a6004803603810190610195919061197f565b6104f3565b005b6101a4610509565b6040516101b191906119cc565b60405180910390f35b6101d460048036038101906101cf91906119e5565b6105cd565b005b6101f060048036038101906101eb91906119e5565b6106cc565b005b61020c600480360381019061020791906118d2565b6106eb565b60405161021991906119cc565b60405180910390f35b61023c600480360381019061023791906118d2565b610700565b6040516102499190611a4d565b60405180910390f35b61026c600480360381019061026791906118d2565b610715565b604051610279919061193c565b60405180910390f35b61029c60048036038101906102979190611a66565b610726565b6040516102a991906119cc565b60405180910390f35b6102ba6107dc565b6040516102c7919061187f565b60405180910390f35b6102ea60048036038101906102e59190611abb565b61086c565b005b61030660048036038101906103019190611c25565b610882565b005b610322600480360381019061031d91906118d2565b6108a7565b60405161032f919061187f565b60405180910390f35b610352600480360381019061034d9190611ca5565b61090d565b60405161035f91906117f6565b60405180910390f35b5f7f80ac58cd000000000000000000000000000000000000000000000000000000007bffffffffffffffffffffffffffffffffffffffffffffffffffffffff1916827bffffffffffffffffffffffffffffffffffffffffffffffffffffffff1916148061043257507f5b5e139f000000000000000000000000000000000000000000000000000000007bffffffffffffffffffffffffffffffffffffffffffffffffffffffff1916827bffffffffffffffffffffffffffffffffffffffffffffffffffffffff1916145b8061044257506104418261099b565b5b9050919050565b60605f805461045790611d10565b80601f016020809104026020016040519081016040528092919081815260200182805461048390611d10565b80156104ce5780601f106104a5576101008083540402835291602001916104ce565b820191905f5260205f20905b8154815290600101906020018083116104b157829003601f168201915b5050505050905090565b5f6104e282610a04565b506104ec82610a8a565b9050919050565b6105058282610500610ac3565b610aca565b5050565b5f60065f81548092919061051c90611d6d565b91905055505f60065490505f33428360405160200161053d93929190611e19565b60405160208183030381529060405280519060200120905061055f3383610adc565b8060075f8481526020019081526020015f20819055504260085f8481526020019081526020015f2081905550817fa6cf31b2c8c5ac2c13def538d07e4eff1786f862c5ca01efef59d89d5292e4e333836040516105bd929190611e55565b60405180910390a2819250505090565b5f73ffffffffffffffffffffffffffffffffffffffff168273ffffffffffffffffffffffffffffffffffffffff160361063d575f6040517f64a0ae92000000000000000000000000000000000000000000000000000000008152600401610634919061193c565b60405180910390fd5b5f610650838361064b610ac3565b610af9565b90508373ffffffffffffffffffffffffffffffffffffffff168173ffffffffffffffffffffffffffffffffffffffff16146106c6578382826040517f64283d7b0000000000000000000000000000000000000000000000000000000081526004016106bd93929190611e7c565b60405180910390fd5b50505050565b6106e683838360405180602001604052805f815250610882565b505050565b6008602052805f5260405f205f915090505481565b6007602052805f5260405f205f915090505481565b5f61071f82610a04565b9050919050565b5f5f73ffffffffffffffffffffffffffffffffffffffff168273ffffffffffffffffffffffffffffffffffffffff1603610797575f6040517f89c62b6400000000000000000000000000000000000000000000000000000000815260040161078e919061193c565b60405180910390fd5b60035f8373ffffffffffffffffffffffffffffffffffffffff1673ffffffffffffffffffffffffffffffffffffffff1681526020019081526020015f20549050919050565b6060600180546107eb90611d10565b80601f016020809104026020016040519081016040528092919081815260200182805461081790611d10565b80156108625780601f1061083957610100808354040283529160200191610862565b820191905f5260205f20905b81548152906001019060200180831161084557829003601f168201915b5050505050905090565b61087e610877610ac3565b8383610d04565b5050565b61088d8484846105cd565b6108a1610898610ac3565b85858585610edd565b50505050565b60606108b282610a04565b505f6108bc611089565b90505f8151116108da5760405180602001604052805f815250610905565b806108e48461109f565b6040516020016108f5929190611eeb565b6040516020818303038152906040525b915050919050565b5f60055f8473ffffffffffffffffffffffffffffffffffffffff1673ffffffffffffffffffffffffffffffffffffffff1681526020019081526020015f205f8373ffffffffffffffffffffffffffffffffffffffff1673ffffffffffffffffffffffffffffffffffffffff1681526020019081526020015f205f9054906101000a900460ff16905092915050565b5f7f01ffc9a7000000000000000000000000000000000000000000000000000000007bffffffffffffffffffffffffffffffffffffffffffffffffffffffff1916827bffffffffffffffffffffffffffffffffffffffffffffffffffffffff1916149050919050565b5f5f610a0f83611169565b90505f73ffffffffffffffffffffffffffffffffffffffff168173ffffffffffffffffffffffffffffffffffffffff1603610a8157826040517f7e273289000000000000000000000000000000000000000000000000000000008152600401610a7891906119cc565b60405180910390fd5b80915050919050565b5f60045f8381526020019081526020015f205f9054906101000a900473ffffffffffffffffffffffffffffffffffffffff169050919050565b5f33905090565b610ad783838360016111a2565b505050565b610af5828260405180602001604052805f815250611361565b5050565b5f5f610b0484611169565b90505f73ffffffffffffffffffffffffffffffffffffffff168373ffffffffffffffffffffffffffffffffffffffff1614610b4557610b44818486611384565b5b5f73ffffffffffffffffffffffffffffffffffffffff168173ffffffffffffffffffffffffffffffffffffffff1614610bd057610b845f855f5f6111a2565b600160035f8373ffffffffffffffffffffffffffffffffffffffff1673ffffffffffffffffffffffffffffffffffffffff1681526020019081526020015f205f82825403925050819055505b5f73ffffffffffffffffffffffffffffffffffffffff168573ffffffffffffffffffffffffffffffffffffffff1614610c4f57600160035f8773ffffffffffffffffffffffffffffffffffffffff1673ffffffffffffffffffffffffffffffffffffffff1681526020019081526020015f205f82825401925050819055505b8460025f8681526020019081526020015f205f6101000a81548173ffffffffffffffffffffffffffffffffffffffff021916908373ffffffffffffffffffffffffffffffffffffffff160217905550838573ffffffffffffffffffffffffffffffffffffffff168273ffffffffffffffffffffffffffffffffffffffff167fddf252ad1be2c89b69c2b068fc378daa952ba7f163c4a11628f55a4df523b3ef60405160405180910390a4809150509392505050565b5f73ffffffffffffffffffffffffffffffffffffffff168373ffffffffffffffffffffffffffffffffffffffff1603610d74575f6040517fa9fbf51f000000000000000000000000000000000000000000000000000000008152600401610d6b919061193c565b60405180910390fd5b5f73ffffffffffffffffffffffffffffffffffffffff168273ffffffffffffffffffffffffffffffffffffffff1603610de457816040517f5b08ba18000000000000000000000000000000000000000000000000000000008152600401610ddb919061193c565b60405180910390fd5b8060055f8573ffffffffffffffffffffffffffffffffffffffff1673ffffffffffffffffffffffffffffffffffffffff1681526020019081526020015f205f8473ffffffffffffffffffffffffffffffffffffffff1673ffffffffffffffffffffffffffffffffffffffff1681526020019081526020015f205f6101000a81548160ff0219169083151502179055508173ffffffffffffffffffffffffffffffffffffffff168373ffffffffffffffffffffffffffffffffffffffff167f17307eab39ab6107e8899845ad3d59bd9653f200f220920489ca2b5937696c3183604051610ed091906117f6565b60405180910390a3505050565b5f8373ffffffffffffffffffffffffffffffffffffffff163b1115611082578273ffffffffffffffffffffffffffffffffffffffff1663150b7a02868685856040518563ffffffff1660e01b8152600401610f3b9493929190611f60565b6020604051808303815f875af1925050508015610f7657506040513d601f19601f82011682018060405250810190610f739190611fbe565b60015b610ff7573d805f8114610fa4576040519150601f19603f3d011682016040523d82523d5f602084013e610fa9565b606091505b505f815103610fef57836040517f64a0ae92000000000000000000000000000000000000000000000000000000008152600401610fe6919061193c565b60405180910390fd5b805160208201fd5b63150b7a0260e01b7bffffffffffffffffffffffffffffffffffffffffffffffffffffffff1916817bffffffffffffffffffffffffffffffffffffffffffffffffffffffff19161461108057836040517f64a0ae92000000000000000000000000000000000000000000000000000000008152600401611077919061193c565b60405180910390fd5b505b5050505050565b606060405180602001604052805f815250905090565b60605f60016110ad84611447565b0190505f8167ffffffffffffffff8111156110cb576110ca611b01565b5b6040519080825280601f01601f1916602001820160405280156110fd5781602001600182028036833780820191505090505b5090505f82602083010190505b60011561115e578080600190039150507f3031323334353637383961626364656600000000000000000000000000000000600a86061a8153600a858161115357611152611fe9565b5b0494505f850361110a575b819350505050919050565b5f60025f8381526020019081526020015f205f9054906101000a900473ffffffffffffffffffffffffffffffffffffffff169050919050565b80806111da57505f73ffffffffffffffffffffffffffffffffffffffff168273ffffffffffffffffffffffffffffffffffffffff1614155b1561130c575f6111e984610a04565b90505f73ffffffffffffffffffffffffffffffffffffffff168373ffffffffffffffffffffffffffffffffffffffff161415801561125357508273ffffffffffffffffffffffffffffffffffffffff168173ffffffffffffffffffffffffffffffffffffffff1614155b80156112665750611264818461090d565b155b156112a857826040517fa9fbf51f00000000000000000000000000000000000000000000000000000000815260040161129f919061193c565b60405180910390fd5b811561130a57838573ffffffffffffffffffffffffffffffffffffffff168273ffffffffffffffffffffffffffffffffffffffff167f8c5be1e5ebec7d5bd14f71427d1e84f3dd0314c0f7b2291e5b200ac8c7c3b92560405160405180910390a45b505b8360045f8581526020019081526020015f205f6101000a81548173ffffffffffffffffffffffffffffffffffffffff021916908373ffffffffffffffffffffffffffffffffffffffff16021790555050505050565b61136b8383611598565b61137f611376610ac3565b5f858585610edd565b505050565b61138f83838361168b565b611442575f73ffffffffffffffffffffffffffffffffffffffff168373ffffffffffffffffffffffffffffffffffffffff160361140357806040517f7e2732890000000000000000000000000000000000000000000000000000000081526004016113fa91906119cc565b60405180910390fd5b81816040517f177e802f000000000000000000000000000000000000000000000000000000008152600401611439929190612016565b60405180910390fd5b505050565b5f5f5f90507a184f03e93ff9f4daa797ed6e38ed64bf6a1f01000000000000000083106114a3577a184f03e93ff9f4daa797ed6e38ed64bf6a1f010000000000000000838161149957611498611fe9565b5b0492506040810190505b6d04ee2d6d415b85acef810000000083106114e0576d04ee2d6d415b85acef810000000083816114d6576114d5611fe9565b5b0492506020810190505b662386f26fc10000831061150f57662386f26fc10000838161150557611504611fe9565b5b0492506010810190505b6305f5e1008310611538576305f5e100838161152e5761152d611fe9565b5b0492506008810190505b612710831061155d57612710838161155357611552611fe9565b5b0492506004810190505b60648310611580576064838161157657611575611fe9565b5b0492506002810190505b600a831061158f576001810190505b80915050919050565b5f73ffffffffffffffffffffffffffffffffffffffff168273ffffffffffffffffffffffffffffffffffffffff1603611608575f6040517f64a0ae920000000000000000000000000000000000000000000000000000000081526004016115ff919061193c565b60405180910390fd5b5f61161483835f610af9565b90505f73ffffffffffffffffffffffffffffffffffffffff168173ffffffffffffffffffffffffffffffffffffffff1614611686575f6040517f73c6ac6e00000000000000000000000000000000000000000000000000000000815260040161167d919061193c565b60405180910390fd5b505050565b5f5f73ffffffffffffffffffffffffffffffffffffffff168373ffffffffffffffffffffffffffffffffffffffff161415801561174257508273ffffffffffffffffffffffffffffffffffffffff168473ffffffffffffffffffffffffffffffffffffffff1614806117035750611702848461090d565b5b8061174157508273ffffffffffffffffffffffffffffffffffffffff1661172983610a8a565b73ffffffffffffffffffffffffffffffffffffffff16145b5b90509392505050565b5f604051905090565b5f5ffd5b5f5ffd5b5f7fffffffff0000000000000000000000000000000000000000000000000000000082169050919050565b6117908161175c565b811461179a575f5ffd5b50565b5f813590506117ab81611787565b92915050565b5f602082840312156117c6576117c5611754565b5b5f6117d38482850161179d565b91505092915050565b5f8115159050919050565b6117f0816117dc565b82525050565b5f6020820190506118095f8301846117e7565b92915050565b5f81519050919050565b5f82825260208201905092915050565b8281835e5f83830152505050565b5f601f19601f8301169050919050565b5f6118518261180f565b61185b8185611819565b935061186b818560208601611829565b61187481611837565b840191505092915050565b5f6020820190508181035f8301526118978184611847565b905092915050565b5f819050919050565b6118b18161189f565b81146118bb575f5ffd5b50565b5f813590506118cc816118a8565b92915050565b5f602082840312156118e7576118e6611754565b5b5f6118f4848285016118be565b91505092915050565b5f73ffffffffffffffffffffffffffffffffffffffff82169050919050565b5f611926826118fd565b9050919050565b6119368161191c565b82525050565b5f60208201905061194f5f83018461192d565b92915050565b61195e8161191c565b8114611968575f5ffd5b50565b5f8135905061197981611955565b92915050565b5f5f6040838503121561199557611994611754565b5b5f6119a28582860161196b565b92505060206119b3858286016118be565b9150509250929050565b6119c68161189f565b82525050565b5f6020820190506119df5f8301846119bd565b92915050565b5f5f5f606084860312156119fc576119fb611754565b5b5f611a098682870161196b565b9350506020611a1a8682870161196b565b9250506040611a2b868287016118be565b9150509250925092565b5f819050919050565b611a4781611a35565b82525050565b5f602082019050611a605f830184611a3e565b92915050565b5f60208284031215611a7b57611a7a611754565b5b5f611a888482850161196b565b91505092915050565b611a9a816117dc565b8114611aa4575f5ffd5b50565b5f81359050611ab581611a91565b92915050565b5f5f60408385031215611ad157611ad0611754565b5b5f611ade8582860161196b565b9250506020611aef85828601611aa7565b9150509250929050565b5f5ffd5b5f5ffd5b7f4e487b71000000000000000000000000000000000000000000000000000000005f52604160045260245ffd5b611b3782611837565b810181811067ffffffffffffffff82111715611b5657611b55611b01565b5b80604052505050565b5f611b6861174b565b9050611b748282611b2e565b919050565b5f67ffffffffffffffff821115611b9357611b92611b01565b5b611b9c82611837565b9050602081019050919050565b828183375f83830152505050565b5f611bc9611bc484611b79565b611b5f565b905082815260208101848484011115611be557611be4611afd565b5b611bf0848285611ba9565b509392505050565b5f82601f830112611c0c57611c0b611af9565b5b8135611c1c848260208601611bb7565b91505092915050565b5f5f5f5f60808587031215611c3d57611c3c611754565b5b5f611c4a8782880161196b565b9450506020611c5b8782880161196b565b9350506040611c6c878288016118be565b925050606085013567ffffffffffffffff811115611c8d57611c8c611758565b5b611c9987828801611bf8565b91505092959194509250565b5f5f60408385031215611cbb57611cba611754565b5b5f611cc88582860161196b565b9250506020611cd98582860161196b565b9150509250929050565b7f4e487b71000000000000000000000000000000000000000000000000000000005f52602260045260245ffd5b5f6002820490506001821680611d2757607f821691505b602082108103611d3a57611d39611ce3565b5b50919050565b7f4e487b71000000000000000000000000000000000000000000000000000000005f52601160045260245ffd5b5f611d778261189f565b91507fffffffffffffffffffffffffffffffffffffffffffffffffffffffffffffffff8203611da957611da8611d40565b5b600182019050919050565b5f8160601b9050919050565b5f611dca82611db4565b9050919050565b5f611ddb82611dc0565b9050919050565b611df3611dee8261191c565b611dd1565b82525050565b5f819050919050565b611e13611e0e8261189f565b611df9565b82525050565b5f611e248286611de2565b601482019150611e348285611e02565b602082019150611e448284611e02565b602082019150819050949350505050565b5f604082019050611e685f83018561192d565b611e756020830184611a3e565b9392505050565b5f606082019050611e8f5f83018661192d565b611e9c60208301856119bd565b611ea9604083018461192d565b949350505050565b5f81905092915050565b5f611ec58261180f565b611ecf8185611eb1565b9350611edf818560208601611829565b80840191505092915050565b5f611ef68285611ebb565b9150611f028284611ebb565b91508190509392505050565b5f81519050919050565b5f82825260208201905092915050565b5f611f3282611f0e565b611f3c8185611f18565b9350611f4c818560208601611829565b611f5581611837565b840191505092915050565b5f608082019050611f735f83018761192d565b611f80602083018661192d565b611f8d60408301856119bd565b8181036060830152611f9f8184611f28565b905095945050505050565b5f81519050611fb881611787565b92915050565b5f60208284031215611fd357611fd2611754565b5b5f611fe084828501611faa565b91505092915050565b7f4e487b71000000000000000000000000000000000000000000000000000000005f52601260045260245ffd5b5f6040820190506120295f83018561192d565b61203660208301846119bd565b939250505056fea264697066735822122028eb27c9ee3419ac5fc34f9beafa0707d1617280b5f5c6a15d2e1a8e6d14e6ca64736f6c634300081c0033",
  "linkReferences": {},
  "deployedLinkReferences": {}
}