{
  "_format": "hh-sol-artifact-1",
  "contractName": "Gochi",
  "sourceName": "contracts/Gochi.sol",
  "abi": [
    {
      "inputs": [
        {
          "internalType": "string",
          "name": "baseURI",
          "type": "string"
        }
      ],
      "stateMutability": "nonpayable",
      "type": "constructor"
    },
    {
      "inputs": [
        {
          "internalType": "address",
          "name": "sender",
          "type": "address"
        },
        {
          "internalType": "uint256",
          "name": "tokenId",
          "type": "uint256"
        },
        {
          "internalType": "address",
          "name": "owner",
          "type": "address"
        }
      ],
      "name": "ERC721IncorrectOwner",
      "type": "error"
    },
    {
      "inputs": [
        {
          "internalType": "address",
          "name": "operator",
          "type": "address"
        },
        {
          "internalType": "uint256",
          "name": "tokenId",
          "type": "uint256"
        }
      ],
      "name": "ERC721InsufficientApproval",
      "type": "error"
    },
    {
      "inputs": [
        {
          "internalType": "address",
          "name": "approver",
          "type": "address"
        }
      ],
      "name": "ERC721InvalidApprover",
      "type": "error"
    },
    {
      "inputs": [
        {
          "internalType": "address",
          "name": "operator",
          "type": "address"
        }
      ],
      "name": "ERC721InvalidOperator",
      "type": "error"
    },
    {
      "inputs": [
        {
          "internalType": "address",
          "name": "owner",
          "type": "address"
        }
      ],
      "name": "ERC721InvalidOwner",
      "type": "error"
    },
    {
      "inputs": [
        {
          "internalType": "address",
          "name": "receiver",
          "type": "address"
        }
      ],
      "name": "ERC721InvalidReceiver",
      "type": "error"
    },
    {
      "inputs": [
        {
          "internalType": "address",
          "name": "sender",
          "type": "address"
        }
      ],
      "name": "ERC721InvalidSender",
      "type": "error"
    },
    {
      "inputs": [
        {
          "internalType": "uint256",
          "name": "tokenId",
          "type": "uint256"
        }
      ],
      "name": "ERC721NonexistentToken",
      "type": "error"
    },
    {
      "anonymous": false,
      "inputs": [
        {
          "indexed": true,
          "internalType": "address",
          "name": "owner",
          "type": "address"
        },
        {
          "indexed": true,
          "internalType": "address",
          "name": "approved",
          "type": "address"
        },
        {
          "indexed": true,
          "internalType": "uint256",
          "name": "tokenId",
          "type": "uint256"
        }
      ],
      "name": "Approval",
      "type": "event"
    },
    {
      "anonymous": false,
      "inputs": [
        {
          "indexed": true,
          "internalType": "address",
          "name": "owner",
          "type": "address"
        },
        {
          "indexed": true,
          "internalType": "address",
          "name": "operator",
          "type": "address"
        },
        {
          "indexed": false,
          "internalType": "bool",
          "name": "approved",
          "type": "bool"
        }
      ],
      "name": "ApprovalForAll",
      "type": "event"
    },
    {
      "anonymous": false,
      "inputs": [
        {
          "indexed": true,
          "internalType": "uint256",
          "name": "tokenId",
          "type": "uint256"
        },
        {
          "indexed": true,
          "internalType": "address",
          "name": "owner",
          "type": "address"
        },
        {
          "indexed": false,
          "internalType": "bytes32",
          "name": "seed",
          "type": "bytes32"
        }
      ],
      "name": "GochiMinted",
      "type": "event"
    },
    {
      "anonymous": false,
      "inputs": [
        {
          "indexed": true,
          "internalType": "address",
          "name": "from",
          "type": "address"
        },
        {
          "indexed": true,
          "internalType": "address",
          "name": "to",
          "type": "address"
        },
        {
          "indexed": true,
          "internalType": "uint256",
          "name": "tokenId",
          "type": "uint256"
        }
      ],
      "name": "Transfer",
      "type": "event"
    },
    {
      "inputs": [
        {
          "internalType": "address",
          "name": "to",
          "type": "address"
        },
        {
          "internalType": "uint256",
          "name": "tokenId",
          "type": "uint256"
        }
      ],
      "name": "approve",
      "outputs": [],
      "stateMutability": "nonpayable",
      "type": "function"
    },
    {
      "inputs": [
        {
          "internalType": "address",
          "name": "owner",
          "type": "address"
        }
      ],
      "name": "balanceOf",
      "outputs": [
        {
          "internalType": "uint256",
          "name": "",
          "type": "uint256"
        }
      ],
      "stateMutability": "view",
      "type": "function"
    },
    {
      "inputs": [
        {
          "internalType": "uint256",
          "name": "",
          "type": "uint256"
        }
      ],
      "name": "birthTimestamp",
      "outputs": [
        {
          "internalType": "uint256",
          "name": "",
          "type": "uint256"
        }
      ],
      "stateMutability": "view",
      "type": "function"
    },
    {
      "inputs": [
        {
          "internalType": "uint256",
          "name": "tokenId",
          "type": "uint256"
        }
      ],
      "name": "getApproved",
      "outputs": [
        {
          "internalType": "address",
          "name": "",
          "type": "address"
        }
      ],
      "stateMutability": "view",
      "type": "function"
    },
    {
      "inputs": [
        {
          "internalType": "address",
          "name": "owner",
          "type": "address"
        },
        {
          "internalType": "address",
          "name": "operator",
          "type": "address"
        }
      ],
      "name": "isApprovedForAll",
      "outputs": [
        {
          "internalType": "bool",
          "name": "",
          "type": "bool"
        }
      ],
      "stateMutability": "view",
      "type": "function"
    },
    {
      "inputs": [],
      "name": "mint",
      "outputs": [
        {
          "internalType": "uint256",
          "name": "",
          "type": "uint256"
        }
      ],
      "stateMutability": "nonpayable",
      "type": "function"
    },
    {
      "inputs": [],
      "name": "name",
      "outputs": [
        {
          "internalType": "string",
          "name": "",
          "type": "string"
        }
      ],
      "stateMutability": "view",
      "type": "function"
    },
    {
      "inputs": [
        {
          "internalType": "uint256",
          "name": "tokenId",
          "type": "uint256"
        }
      ],
      "name": "ownerOf",
      "outputs": [
        {
          "internalType": "address",
          "name": "",
          "type": "address"
        }
      ],
      "stateMutability": "view",
      "type": "function"
    },
    {
      "inputs": [
        {
          "internalType": "uint256",
          "name": "",
          "type": "uint256"
        }
      ],
      "name": "personalitySeed",
      "outputs": [
        {
          "internalType": "bytes32",
          "name": "",
          "type": "bytes32"
        }
      ],
      "stateMutability": "view",
      "type": "function"
    },
    {
      "inputs": [
        {
          "internalType": "address",
          "name": "from",
          "type": "address"
        },
        {
          "internalType": "address",
          "name": "to",
          "type": "address"
        },
        {
          "internalType": "uint256",
          "name": "tokenId",
          "type": "uint256"
        }
      ],
      "name": "safeTransferFrom",
      "outputs": [],
      "stateMutability": "nonpayable",
      "type": "function"
    },
    {
      "inputs": [
        {
          "internalType": "address",
          "name": "from",
          "type": "address"
        },
        {
          "internalType": "address",
          "name": "to",
          "type": "address"
        },
        {
          "internalType": "uint256",
          "name": "tokenId",
          "type": "uint256"
        },
        {
          "internalType": "bytes",
          "name": "data",
          "type": "bytes"
        }
      ],
      "name": "safeTransferFrom",
      "outputs": [],
      "stateMutability": "nonpayable",
      "type": "function"
    },
    {
      "inputs": [
        {
          "internalType": "address",
          "name": "operator",
          "type": "address"
        },
        {
          "internalType": "bool",
          "name": "approved",
          "type": "bool"
        }
      ],
      "name": "setApprovalForAll",
      "outputs": [],
      "stateMutability": "nonpayable",
      "type": "function"
    },
    {
      "inputs": [
        {
          "internalType": "string",
          "name": "baseURI",
          "type": "string"
        }
      ],
      "name": "setBaseURI",
      "outputs": [],
      "stateMutability": "nonpayable",
      "type": "function"
    },
    {
      "inputs": [
        {
          "internalType": "bytes4",
          "name": "interfaceId",
          "type": "bytes4"
        }
      ],
      "name": "supportsInterface",
      "outputs": [
        {
          "internalType": "bool",
          "name": "",
          "type": "bool"
        }
      ],
      "stateMutability": "view",
      "type": "function"
    },
    {
      "inputs": [],
      "name": "symbol",
      "outputs": [
        {
          "internalType": "string",
          "name": "",
          "type": "string"
        }
      ],
      "stateMutability": "view",
      "type": "function"
    },
    {
      "inputs": [
        {
          "internalType": "uint256",
          "name": "tokenId",
          "type": "uint256"
        }
      ],
      "name": "tokenURI",
      "outputs": [
        {
          "internalType": "string",
          "name": "",
          "type": "string"
        }
      ],
      "stateMutability": "view",
      "type": "function"
    },
    {
      "inputs": [],
      "name": "totalSupply",
      "outputs": [
        {
          "internalType": "uint256",
          "name": "",
          "type": "uint256"
        }
      ],
      "stateMutability": "view",
      "type": "function"
    },
    {
      "inputs": [
        {
          "internalType": "address",
          "name": "from",
          "type": "address"
        },
        {
          "internalType": "address",
          "name": "to",
          "type": "address"
        },
        {
          "internalType": "uint256",
          "name": "tokenId",
          "type": "uint256"
        }
      ],
      "name": "transferFrom",
      "outputs": [],
      "stateMutability": "nonpayable",
      "type": "function"
    }
  ],
  "bytecode": "0x608060405234801561000f575f5ffd5b506040516129bd3803806129bd83398181016040528101906100319190610221565b6040518060400160405280600581526020017f476f6368690000000000000000000000000000000000000000000000000000008152506040518060400160405280600581526020017f474f434849000000000000000000000000000000000000000000000000000000815250815f90816100ab9190610478565b5080600190816100bb9190610478565b50505080600990816100cd9190610478565b5050610547565b5f604051905090565b5f5ffd5b5f5ffd5b5f5ffd5b5f5ffd5b5f601f19601f8301169050919050565b7f4e487b71000000000000000000000000000000000000000000000000000000005f52604160045260245ffd5b610133826100ed565b810181811067ffffffffffffffff82111715610152576101516100fd565b5b80604052505050565b5f6101646100d4565b9050610170828261012a565b919050565b5f67ffffffffffffffff82111561018f5761018e6100fd565b5b610198826100ed565b9050602081019050919050565b8281835e5f83830152505050565b5f6101c56101c084610175565b61015b565b9050828152602081018484840111156101e1576101e06100e9565b5b6101ec8482856101a5565b509392505050565b5f82601f830112610208576102076100e5565b5b81516102188482602086016101b3565b91505092915050565b5f60208284031215610236576102356100dd565b5b5f82015167ffffffffffffffff811115610253576102526100e1565b5b61025f848285016101f4565b91505092915050565b5f81519050919050565b7f4e487b71000000000000000000000000000000000000000000000000000000005f52602260045260245ffd5b5f60028204905060018216806102b657607f821691505b6020821081036102c9576102c8610272565b5b50919050565b5f819050815f5260205f209050919050565b5f6020601f8301049050919050565b5f82821b905092915050565b5f6008830261032b7fffffffffffffffffffffffffffffffffffffffffffffffffffffffffffffffff826102f0565b61033586836102f0565b95508019841693508086168417925050509392505050565b5f819050919050565b5f819050919050565b5f61037961037461036f8461034d565b610356565b61034d565b9050919050565b5f819050919050565b6103928361035f565b6103a661039e82610380565b8484546102fc565b825550505050565b5f5f905090565b6103bd6103ae565b6103c8818484610389565b505050565b5b818110156103eb576103e05f826103b5565b6001810190506103ce565b5050565b601f82111561043057610401816102cf565b61040a846102e1565b81016020851015610419578190505b61042d610425856102e1565b8301826103cd565b50505b505050565b5f82821c905092915050565b5f6104505f1984600802610435565b1980831691505092915050565b5f6104688383610441565b9150826002028217905092915050565b61048182610268565b67ffffffffffffffff81111561049a576104996100fd565b5b6104a4825461029f565b6104af8282856103ef565b5f60209050601f8311600181146104e0575f84156104ce578287015190505b6104d8858261045d565b86555061053f565b601f1984166104ee866102cf565b5f5b82811015610515578489015182556001820191506020850194506020810190506104f0565b86831015610532578489015161052e601f891682610441565b8355505b6001600288020188555050505b505050505050565b612469806105545f395ff3fe608060405234801561000f575f5ffd5b5060043610610114575f3560e01c8063522d669d116100a057806395d89b411161006f57806395d89b4114610302578063a22cb46514610320578063b88d4fde1461033c578063c87b56dd14610358578063e985e9c51461038857610114565b8063522d669d1461025657806355f804b3146102865780636352211e146102a257806370a08231146102d257610114565b80631249c58b116100e75780631249c58b146101b257806318160ddd146101d057806323b872dd146101ee57806342842e0e1461020a5780634be5dd911461022657610114565b806301ffc9a71461011857806306fdde0314610148578063081812fc14610166578063095ea7b314610196575b5f5ffd5b610132600480360381019061012d91906118af565b6103b8565b60405161013f91906118f4565b60405180910390f35b610150610499565b60405161015d919061197d565b60405180910390f35b610180600480360381019061017b91906119d0565b610528565b60405161018d9190611a3a565b60405180910390f35b6101b060048036038101906101ab9190611a7d565b610543565b005b6101ba610559565b6040516101c79190611aca565b60405180910390f35b6101d8610632565b6040516101e59190611aca565b60405180910390f35b61020860048036038101906102039190611ae3565b61063b565b005b610224600480360381019061021f9190611ae3565b61073a565b005b610240600480360381019061023b91906119d0565b610759565b60405161024d9190611aca565b60405180910390f35b610270600480360381019061026b91906119d0565b61076e565b60405161027d9190611b4b565b60405180910390f35b6102a0600480360381019061029b9190611bc5565b610783565b005b6102bc60048036038101906102b791906119d0565b610799565b6040516102c99190611a3a565b60405180910390f35b6102ec60048036038101906102e79190611c10565b6107aa565b6040516102f99190611aca565b60405180910390f35b61030a610860565b604051610317919061197d565b60405180910390f35b61033a60048036038101906103359190611c65565b6108f0565b005b61035660048036038101906103519190611dcb565b610906565b005b610372600480360381019061036d91906119d0565b61092b565b60405161037f919061197d565b60405180910390f35b6103a2600480360381019061039d9190611e4b565b610991565b6040516103af91906118f4565b60405180910390f35b5f7f80ac58cd000000000000000000000000000000000000000000000000000000007bffffffffffffffffffffffffffffffffffffffffffffffffffffffff1916827bffffffffffffffffffffffffffffffffffffffffffffffffffffffff1916148061048257507f5b5e139f000000000000000000000000000000000000000000000000000000007bffffffffffffffffffffffffffffffffffffffffffffffffffffffff1916827bffffffffffffffffffffffffffffffffffffffffffffffffffffffff1916145b80610492575061049182610a1f565b5b9050919050565b60605f80546104a790611eb6565b80601f01602080910402602001604051908101604052809291908181526020018280546104d390611eb6565b801561051e5780601f106104f55761010080835404028352916020019161051e565b820191905f5260205f20905b81548152906001019060200180831161050157829003601f168201915b5050505050905090565b5f61053282610a88565b5061053c82610b0e565b9050919050565b6105558282610550610b47565b610b4e565b5050565b5f60065f81548092919061056c90611f13565b91905055505f60065490505f33428360405160200161058d93929190611fbf565b6040516020818303038152906040528051906020012090506105af3383610b60565b8060075f8481526020019081526020015f20819055504260085f8481526020019081526020015f20819055503373ffffffffffffffffffffffffffffffffffffffff16827fa6cf31b2c8c5ac2c13def538d07e4eff1786f862c5ca01efef59d89d5292e4e3836040516106229190611b4b565b60405180910390a3819250505090565b5f600654905090565b5f73ffffffffffffffffffffffffffffffffffffffff168273ffffffffffffffffffffffffffffffffffffffff16036106ab575f6040517f64a0ae920000000000000000000000000000000000000000000000000000000081526004016106a29190611a3a565b60405180910390fd5b5f6106be83836106b9610b47565b610b7d565b90508373ffffffffffffffffffffffffffffffffffffffff168173ffffffffffffffffffffffffffffffffffffffff1614610734578382826040517f64283d7b00000000000000000000000000000000000000000000000000000000815260040161072b93929190611ffb565b60405180910390fd5b50505050565b61075483838360405180602001604052805f815250610906565b505050565b6008602052805f5260405f205f915090505481565b6007602052805f5260405f205f915090505481565b8181600991826107949291906121da565b505050565b5f6107a382610a88565b9050919050565b5f5f73ffffffffffffffffffffffffffffffffffffffff168273ffffffffffffffffffffffffffffffffffffffff160361081b575f6040517f89c62b640000000000000000000000000000000000000000000000000000000081526004016108129190611a3a565b60405180910390fd5b60035f8373ffffffffffffffffffffffffffffffffffffffff1673ffffffffffffffffffffffffffffffffffffffff1681526020019081526020015f20549050919050565b60606001805461086f90611eb6565b80601f016020809104026020016040519081016040528092919081815260200182805461089b90611eb6565b80156108e65780601f106108bd576101008083540402835291602001916108e6565b820191905f5260205f20905b8154815290600101906020018083116108c957829003601f168201915b5050505050905090565b6109026108fb610b47565b8383610d88565b5050565b61091184848461063b565b61092561091c610b47565b85858585610f61565b50505050565b606061093682610a88565b505f61094061110d565b90505f81511161095e5760405180602001604052805f815250610989565b806109688461119d565b6040516020016109799291906122e1565b6040516020818303038152906040525b915050919050565b5f60055f8473ffffffffffffffffffffffffffffffffffffffff1673ffffffffffffffffffffffffffffffffffffffff1681526020019081526020015f205f8373ffffffffffffffffffffffffffffffffffffffff1673ffffffffffffffffffffffffffffffffffffffff1681526020019081526020015f205f9054906101000a900460ff16905092915050565b5f7f01ffc9a7000000000000000000000000000000000000000000000000000000007bffffffffffffffffffffffffffffffffffffffffffffffffffffffff1916827bffffffffffffffffffffffffffffffffffffffffffffffffffffffff1916149050919050565b5f5f610a9383611267565b90505f73ffffffffffffffffffffffffffffffffffffffff168173ffffffffffffffffffffffffffffffffffffffff1603610b0557826040517f7e273289000000000000000000000000000000000000000000000000000000008152600401610afc9190611aca565b60405180910390fd5b80915050919050565b5f60045f8381526020019081526020015f205f9054906101000a900473ffffffffffffffffffffffffffffffffffffffff169050919050565b5f33905090565b610b5b83838360016112a0565b505050565b610b79828260405180602001604052805f81525061145f565b5050565b5f5f610b8884611267565b90505f73ffffffffffffffffffffffffffffffffffffffff168373ffffffffffffffffffffffffffffffffffffffff1614610bc957610bc8818486611482565b5b5f73ffffffffffffffffffffffffffffffffffffffff168173ffffffffffffffffffffffffffffffffffffffff1614610c5457610c085f855f5f6112a0565b600160035f8373ffffffffffffffffffffffffffffffffffffffff1673ffffffffffffffffffffffffffffffffffffffff1681526020019081526020015f205f82825403925050819055505b5f73ffffffffffffffffffffffffffffffffffffffff168573ffffffffffffffffffffffffffffffffffffffff1614610cd357600160035f8773ffffffffffffffffffffffffffffffffffffffff1673ffffffffffffffffffffffffffffffffffffffff1681526020019081526020015f205f82825401925050819055505b8460025f8681526020019081526020015f205f6101000a81548173ffffffffffffffffffffffffffffffffffffffff021916908373ffffffffffffffffffffffffffffffffffffffff160217905550838573ffffffffffffffffffffffffffffffffffffffff168273ffffffffffffffffffffffffffffffffffffffff167fddf252ad1be2c89b69c2b068fc378daa952ba7f163c4a11628f55a4df523b3ef60405160405180910390a4809150509392505050565b5f73ffffffffffffffffffffffffffffffffffffffff168373ffffffffffffffffffffffffffffffffffffffff1603610df8575f6040517fa9fbf51f000000000000000000000000000000000000000000000000000000008152600401610def9190611a3a565b60405180910390fd5b5f73ffffffffffffffffffffffffffffffffffffffff168273ffffffffffffffffffffffffffffffffffffffff1603610e6857816040517f5b08ba18000000000000000000000000000000000000000000000000000000008152600401610e5f9190611a3a565b60405180910390fd5b8060055f8573ffffffffffffffffffffffffffffffffffffffff1673ffffffffffffffffffffffffffffffffffffffff1681526020019081526020015f205f8473ffffffffffffffffffffffffffffffffffffffff1673ffffffffffffffffffffffffffffffffffffffff1681526020019081526020015f205f6101000a81548160ff0219169083151502179055508173ffffffffffffffffffffffffffffffffffffffff168373ffffffffffffffffffffffffffffffffffffffff167f17307eab39ab6107e8899845ad3d59bd9653f200f220920489ca2b5937696c3183604051610f5491906118f4565b60405180910390a3505050565b5f8373ffffffffffffffffffffffffffffffffffffffff163b1115611106578273ffffffffffffffffffffffffffffffffffffffff1663150b7a02868685856040518563ffffffff1660e01b8152600401610fbf9493929190612356565b6020604051808303815f875af1925050508015610ffa57506040513d601f19601f82011682018060405250810190610ff791906123b4565b60015b61107b573d805f8114611028576040519150601f19603f3d011682016040523d82523d5f602084013e61102d565b606091505b505f81510361107357836040517f64a0ae9200000000000000000000000000000000000000000000000000000000815260040161106a9190611a3a565b60405180910390fd5b805160208201fd5b63150b7a0260e01b7bffffffffffffffffffffffffffffffffffffffffffffffffffffffff1916817bffffffffffffffffffffffffffffffffffffffffffffffffffffffff19161461110457836040517f64a0ae920000000000000000000000000000000000000000000000000000000081526004016110fb9190611a3a565b60405180910390fd5b505b5050505050565b60606009805461111c90611eb6565b80601f016020809104026020016040519081016040528092919081815260200182805461114890611eb6565b80156111935780601f1061116a57610100808354040283529160200191611193565b820191905f5260205f20905b81548152906001019060200180831161117657829003601f168201915b5050505050905090565b60605f60016111ab84611545565b0190505f8167ffffffffffffffff8111156111c9576111c8611ca7565b5b6040519080825280601f01601f1916602001820160405280156111fb5781602001600182028036833780820191505090505b5090505f82602083010190505b60011561125c578080600190039150507f3031323334353637383961626364656600000000000000000000000000000000600a86061a8153600a8581611251576112506123df565b5b0494505f8503611208575b819350505050919050565b5f60025f8381526020019081526020015f205f9054906101000a900473ffffffffffffffffffffffffffffffffffffffff169050919050565b80806112d857505f73ffffffffffffffffffffffffffffffffffffffff168273ffffffffffffffffffffffffffffffffffffffff1614155b1561140a575f6112e784610a88565b90505f73ffffffffffffffffffffffffffffffffffffffff168373ffffffffffffffffffffffffffffffffffffffff161415801561135157508273ffffffffffffffffffffffffffffffffffffffff168173ffffffffffffffffffffffffffffffffffffffff1614155b801561136457506113628184610991565b155b156113a657826040517fa9fbf51f00000000000000000000000000000000000000000000000000000000815260040161139d9190611a3a565b60405180910390fd5b811561140857838573ffffffffffffffffffffffffffffffffffffffff168273ffffffffffffffffffffffffffffffffffffffff167f8c5be1e5ebec7d5bd14f71427d1e84f3dd0314c0f7b2291e5b200ac8c7c3b92560405160405180910390a45b505b8360045f8581526020019081526020015f205f6101000a81548173ffffffffffffffffffffffffffffffffffffffff021916908373ffffffffffffffffffffffffffffffffffffffff16021790555050505050565b6114698383611696565b61147d611474610b47565b5f858585610f61565b505050565b61148d838383611789565b611540575f73ffffffffffffffffffffffffffffffffffffffff168373ffffffffffffffffffffffffffffffffffffffff160361150157806040517f7e2732890000000000000000000000000000000000000000000000000000000081526004016114f89190611aca565b60405180910390fd5b81816040517f177e802f00000000000000000000000000000000000000000000000000000000815260040161153792919061240c565b60405180910390fd5b505050565b5f5f5f90507a184f03e93ff9f4daa797ed6e38ed64bf6a1f01000000000000000083106115a1577a184f03e93ff9f4daa797ed6e38ed64bf6a1f0100000000000000008381611597576115966123df565b5b0492506040810190505b6d04ee2d6d415b85acef810000000083106115de576d04ee2d6d415b85acef810000000083816115d4576115d36123df565b5b0492506020810190505b662386f26fc10000831061160d57662386f26fc100008381611603576116026123df565b5b0492506010810190505b6305f5e1008310611636576305f5e100838161162c5761162b6123df565b5b0492506008810190505b612710831061165b576127108381611651576116506123df565b5b0492506004810190505b6064831061167e5760648381611674576116736123df565b5b0492506002810190505b600a831061168d576001810190505b80915050919050565b5f73ffffffffffffffffffffffffffffffffffffffff168273ffffffffffffffffffffffffffffffffffffffff1603611706575f6040517f64a0ae920000000000000000000000000000000000000000000000000000000081526004016116fd9190611a3a565b60405180910390fd5b5f61171283835f610b7d565b90505f73ffffffffffffffffffffffffffffffffffffffff168173ffffffffffffffffffffffffffffffffffffffff1614611784575f6040517f73c6ac6e00000000000000000000000000000000000000000000000000000000815260040161177b9190611a3a565b60405180910390fd5b505050565b5f5f73ffffffffffffffffffffffffffffffffffffffff168373ffffffffffffffffffffffffffffffffffffffff161415801561184057508273ffffffffffffffffffffffffffffffffffffffff168473ffffffffffffffffffffffffffffffffffffffff16148061180157506118008484610991565b5b8061183f57508273ffffffffffffffffffffffffffffffffffffffff1661182783610b0e565b73ffffffffffffffffffffffffffffffffffffffff16145b5b90509392505050565b5f604051905090565b5f5ffd5b5f5ffd5b5f7fffffffff0000000000000000000000000000000000000000000000000000000082169050919050565b61188e8161185a565b8114611898575f5ffd5b50565b5f813590506118a981611885565b92915050565b5f602082840312156118c4576118c3611852565b5b5f6118d18482850161189b565b91505092915050565b5f8115159050919050565b6118ee816118da565b82525050565b5f6020820190506119075f8301846118e5565b92915050565b5f81519050919050565b5f82825260208201905092915050565b8281835e5f83830152505050565b5f601f19601f8301169050919050565b5f61194f8261190d565b6119598185611917565b9350611969818560208601611927565b61197281611935565b840191505092915050565b5f6020820190508181035f8301526119958184611945565b905092915050565b5f819050919050565b6119af8161199d565b81146119b9575f5ffd5b50565b5f813590506119ca816119a6565b92915050565b5f602082840312156119e5576119e4611852565b5b5f6119f2848285016119bc565b91505092915050565b5f73ffffffffffffffffffffffffffffffffffffffff82169050919050565b5f611a24826119fb565b9050919050565b611a3481611a1a565b82525050565b5f602082019050611a4d5f830184611a2b565b92915050565b611a5c81611a1a565b8114611a66575f5ffd5b50565b5f81359050611a7781611a53565b92915050565b5f5f60408385031215611a9357611a92611852565b5b5f611aa085828601611a69565b9250506020611ab1858286016119bc565b9150509250929050565b611ac48161199d565b82525050565b5f602082019050611add5f830184611abb565b92915050565b5f5f5f60608486031215611afa57611af9611852565b5b5f611b0786828701611a69565b9350506020611b1886828701611a69565b9250506040611b29868287016119bc565b9150509250925092565b5f819050919050565b611b4581611b33565b82525050565b5f602082019050611b5e5f830184611b3c565b92915050565b5f5ffd5b5f5ffd5b5f5ffd5b5f5f83601f840112611b8557611b84611b64565b5b8235905067ffffffffffffffff811115611ba257611ba1611b68565b5b602083019150836001820283011115611bbe57611bbd611b6c565b5b9250929050565b5f5f60208385031215611bdb57611bda611852565b5b5f83013567ffffffffffffffff811115611bf857611bf7611856565b5b611c0485828601611b70565b92509250509250929050565b5f60208284031215611c2557611c24611852565b5b5f611c3284828501611a69565b91505092915050565b611c44816118da565b8114611c4e575f5ffd5b50565b5f81359050611c5f81611c3b565b92915050565b5f5f60408385031215611c7b57611c7a611852565b5b5f611c8885828601611a69565b9250506020611c9985828601611c51565b9150509250929050565b5f5ffd5b7f4e487b71000000000000000000000000000000000000000000000000000000005f52604160045260245ffd5b611cdd82611935565b810181811067ffffffffffffffff82111715611cfc57611cfb611ca7565b5b80604052505050565b5f611d0e611849565b9050611d1a8282611cd4565b919050565b5f67ffffffffffffffff821115611d3957611d38611ca7565b5b611d4282611935565b9050602081019050919050565b828183375f83830152505050565b5f611d6f611d6a84611d1f565b611d05565b905082815260208101848484011115611d8b57611d8a611ca3565b5b611d96848285611d4f565b509392505050565b5f82601f830112611db257611db1611b64565b5b8135611dc2848260208601611d5d565b91505092915050565b5f5f5f5f60808587031215611de357611de2611852565b5b5f611df087828801611a69565b9450506020611e0187828801611a69565b9350506040611e12878288016119bc565b925050606085013567ffffffffffffffff811115611e3357611e32611856565b5b611e3f87828801611d9e565b91505092959194509250565b5f5f60408385031215611e6157611e60611852565b5b5f611e6e85828601611a69565b9250506020611e7f85828601611a69565b9150509250929050565b7f4e487b71000000000000000000000000000000000000000000000000000000005f52602260045260245ffd5b5f6002820490506001821680611ecd57607f821691505b602082108103611ee057611edf611e89565b5b50919050565b7f4e487b71000000000000000000000000000000000000000000000000000000005f52601160045260245ffd5b5f611f1d8261199d565b91507fffffffffffffffffffffffffffffffffffffffffffffffffffffffffffffffff8203611f4f57611f4e611ee6565b5b600182019050919050565b5f8160601b9050919050565b5f611f7082611f5a565b9050919050565b5f611f8182611f66565b9050919050565b611f99611f9482611a1a565b611f77565b82525050565b5f819050919050565b611fb9611fb48261199d565b611f9f565b82525050565b5f611fca8286611f88565b601482019150611fda8285611fa8565b602082019150611fea8284611fa8565b602082019150819050949350505050565b5f60608201905061200e5f830186611a2b565b61201b6020830185611abb565b6120286040830184611a2b565b949350505050565b5f82905092915050565b5f819050815f5260205f209050919050565b5f6020601f8301049050919050565b5f82821b905092915050565b5f600883026120967fffffffffffffffffffffffffffffffffffffffffffffffffffffffffffffffff8261205b565b6120a0868361205b565b95508019841693508086168417925050509392505050565b5f819050919050565b5f6120db6120d66120d18461199d565b6120b8565b61199d565b9050919050565b5f819050919050565b6120f4836120c1565b612108612100826120e2565b848454612067565b825550505050565b5f5f905090565b61211f612110565b61212a8184846120eb565b505050565b5b8181101561214d576121425f82612117565b600181019050612130565b5050565b601f821115612192576121638161203a565b61216c8461204c565b8101602085101561217b578190505b61218f6121878561204c565b83018261212f565b50505b505050565b5f82821c905092915050565b5f6121b25f1984600802612197565b1980831691505092915050565b5f6121ca83836121a3565b9150826002028217905092915050565b6121e48383612030565b67ffffffffffffffff8111156121fd576121fc611ca7565b5b6122078254611eb6565b612212828285612151565b5f601f83116001811461223f575f841561222d578287013590505b61223785826121bf565b86555061229e565b601f19841661224d8661203a565b5f5b828110156122745784890135825560018201915060208501945060208101905061224f565b86831015612291578489013561228d601f8916826121a3565b8355505b6001600288020188555050505b50505050505050565b5f81905092915050565b5f6122bb8261190d565b6122c581856122a7565b93506122d5818560208601611927565b80840191505092915050565b5f6122ec82856122b1565b91506122f882846122b1565b91508190509392505050565b5f81519050919050565b5f82825260208201905092915050565b5f61232882612304565b612332818561230e565b9350612342818560208601611927565b61234b81611935565b840191505092915050565b5f6080820190506123695f830187611a2b565b6123766020830186611a2b565b6123836040830185611abb565b8181036060830152612395818461231e565b905095945050505050565b5f815190506123ae81611885565b92915050565b5f602082840312156123c9576123c8611852565b5b5f6123d6848285016123a0565b91505092915050565b7f4e487b71000000000000000000000000000000000000000000000000000000005f52601260045260245ffd5b5f60408201905061241f5f830185611a2b565b61242c6020830184611abb565b939250505056fea2646970667358221220c16ae878f47eb8bce219f428b3c024a86d92e94a80e209fa42ccc105936c8a1864736f6c634300081c0033",
  "linkReferences": {},
  "deployedLinkReferences": {}
}